{"abi":[{"type":"constructor","inputs":[{"name":"_aiAgent","type":"address","internalType":"address"},{"name":"_treasury","type":"address","internalType":"address"},{"name":"_usdcAddress","type":"address","internalType":"address"},{"name":"_verificationFee","type":"uint256","internalType":"uint256"}],"stateMutability":"nonpayable"},{"type":"function","name":"AI_AGENT","inputs":[],"outputs":[{"name":"","type":"address","internalType":"address"}],"stateMutability":"view"},{"type":"function","name":"getGigScore","inputs":[{"name":"_worker","type":"address","internalType":"address"}],"outputs":[{"name":"","type":"uint8","internalType":"uint8"}],"stateMutability":"view"},{"type":"function","name":"getVerificationCount","inputs":[],"outputs":[{"name":"","type":"uint256","internalType":"uint256"}],"stateMutability":"view"},{"type":"function","name":"getWorkerProfile","inputs":[{"name":"_worker","type":"address","internalType":"address"}],"outputs":[{"name":"","type":"tuple","internalType":"struct Pramaan.WorkerProfile","components":[{"name":"identityVerified","type":"bool","internalType":"bool"},{"name":"incomeVerified","type":"bool","internalType":"bool"},{"name":"gigScore","type":"uint8","internalType":"uint8"},{"name":"lastUpdated","type":"uint256","internalType":"uint256"},{"name":"identityDdocId","type":"string","internalType":"string"},{"name":"incomeDdocId","type":"string","internalType":"string"},{"name":"platform","type":"string","internalType":"string"},{"name":"identityProofHash","type":"string","internalType":"string"},{"name":"incomeProofHash","type":"string","internalType":"string"},{"name":"exists","type":"bool","internalType":"bool"}]}],"stateMutability":"view"},{"type":"function","name":"isVerified","inputs":[{"name":"_worker","type":"address","internalType":"address"}],"outputs":[{"name":"","type":"bool","internalType":"bool"}],"stateMutability":"view"},{"type":"function","name":"setGigScore","inputs":[{"name":"_worker","type":"address","internalType":"address"},{"name":"_score","type":"uint8","internalType":"uint8"}],"outputs":[],"stateMutability":"nonpayable"},{"type":"function","name":"submitIdentity","inputs":[{"name":"_ddocId","type":"string","internalType":"string"},{"name":"_proofHash","type":"string","internalType":"string"}],"outputs":[],"stateMutability":"nonpayable"},{"type":"function","name":"submitIncome","inputs":[{"name":"_ddocId","type":"string","internalType":"string"},{"name":"_platform","type":"string","internalType":"string"},{"name":"_proofHash","type":"string","internalType":"string"}],"outputs":[],"stateMutability":"nonpayable"},{"type":"function","name":"treasury","inputs":[],"outputs":[{"name":"","type":"address","internalType":"address"}],"stateMutability":"view"},{"type":"function","name":"usdc","inputs":[],"outputs":[{"name":"","type":"address","internalType":"contract IERC20"}],"stateMutability":"view"},{"type":"function","name":"usedProofHashes","inputs":[{"name":"","type":"string","internalType":"string"}],"outputs":[{"name":"","type":"bool","internalType":"bool"}],"stateMutability":"view"},{"type":"function","name":"verificationFee","inputs":[],"outputs":[{"name":"","type":"uint256","internalType":"uint256"}],"stateMutability":"view"},{"type":"function","name":"verificationLogs","inputs":[{"name":"","type":"uint256","internalType":"uint256"}],"outputs":[{"name":"lender","type":"address","internalType":"address"},{"name":"worker","type":"address","internalType":"address"},{"name":"timestamp","type":"uint256","internalType":"uint256"},{"name":"feePaid","type":"uint256","internalType":"uint256"}],"stateMutability":"view"},{"type":"function","name":"verifyWorker","inputs":[{"name":"_workerAddress","type":"address","internalType":"address"}],"outputs":[],"stateMutability":"nonpayable"},{"type":"function","name":"workers","inputs":[{"name":"","type":"address","internalType":"address"}],"outputs":[{"name":"identityVerified","type":"bool","internalType":"bool"},{"name":"incomeVerified","type":"bool","internalType":"bool"},{"name":"gigScore","type":"uint8","internalType":"uint8"},{"name":"lastUpdated","type":"uint256","internalType":"uint256"},{"name":"identityDdocId","type":"string","internalType":"string"},{"name":"incomeDdocId","type":"string","internalType":"string"},{"name":"platform","type":"string","internalType":"string"},{"name":"identityProofHash","type":"string","internalType":"string"},{"name":"incomeProofHash","type":"string","internalType":"string"},{"name":"exists","type":"bool","internalType":"bool"}],"stateMutability":"view"},{"type":"event","name":"IdentityVerified","inputs":[{"name":"worker","type":"address","indexed":true,"internalType":"address"},{"name":"ddocId","type":"string","indexed":false,"internalType":"string"},{"name":"proofHash","type":"string","indexed":false,"internalType":"string"},{"name":"timestamp","type":"uint256","indexed":false,"internalType":"uint256"}],"anonymous":false},{"type":"event","name":"IncomeVerified","inputs":[{"name":"worker","type":"address","indexed":true,"internalType":"address"},{"name":"platform","type":"string","indexed":false,"internalType":"string"},{"name":"ddocId","type":"string","indexed":false,"internalType":"string"},{"name":"proofHash","type":"string","indexed":false,"internalType":"string"},{"name":"timestamp","type":"uint256","indexed":false,"internalType":"uint256"}],"anonymous":false},{"type":"event","name":"ScoreUpdated","inputs":[{"name":"worker","type":"address","indexed":true,"internalType":"address"},{"name":"newScore","type":"uint8","indexed":false,"internalType":"uint8"},{"name":"timestamp","type":"uint256","indexed":false,"internalType":"uint256"}],"anonymous":false},{"type":"event","name":"WorkerVerified","inputs":[{"name":"lender","type":"address","indexed":true,"internalType":"address"},{"name":"worker","type":"address","indexed":true,"internalType":"address"},{"name":"feePaid","type":"uint256","indexed":false,"internalType":"uint256"},{"name":"timestamp","type":"uint256","indexed":false,"internalType":"uint256"}],"anonymous":false}],"bytecode":{"object":"0x60a060405234801561000f575f5ffd5b5060405161330c38038061330c83398181016040528101906100319190610185565b8373ffffffffffffffffffffffffffffffffffffffff1660808173ffffffffffffffffffffffffffffffffffffffff1681525050825f5f6101000a81548173ffffffffffffffffffffffffffffffffffffffff021916908373ffffffffffffffffffffffffffffffffffffffff1602179055508160015f6101000a81548173ffffffffffffffffffffffffffffffffffffffff021916908373ffffffffffffffffffffffffffffffffffffffff16021790555080600281905550505050506101e9565b5f5ffd5b5f73ffffffffffffffffffffffffffffffffffffffff82169050919050565b5f610121826100f8565b9050919050565b61013181610117565b811461013b575f5ffd5b50565b5f8151905061014c81610128565b92915050565b5f819050919050565b61016481610152565b811461016e575f5ffd5b50565b5f8151905061017f8161015b565b92915050565b5f5f5f5f6080858703121561019d5761019c6100f4565b5b5f6101aa8782880161013e565b94505060206101bb8782880161013e565b93505060406101cc8782880161013e565b92505060606101dd87828801610171565b91505092959194509250565b6080516131046102085f395f8181610ddf015261140001526131045ff3fe608060405234801561000f575f5ffd5b50600436106100f3575f3560e01c806361d027b311610095578063bdc5c57411610064578063bdc5c5741461027d578063c566e29314610299578063ce37e7dc146102c9578063fced987e146102f9576100f3565b806361d027b3146101de578063a8c278a2146101fc578063b9209e331461021a578063bb4ab2da1461024a576100f3565b8063326ac949116100d1578063326ac9491461014d5780633e413bee146101695780634048a25714610187578063408432c5146101c0576100f3565b80631f05b374146100f757806323d5d5bd146101155780632b30368c14610131575b5f5ffd5b6100ff610329565b60405161010c9190611d68565b60405180910390f35b61012f600480360381019061012a9190611df3565b610335565b005b61014b60048036038101906101469190611efd565b610699565b005b61016760048036038101906101629190611f5e565b610ddd565b005b6101716110bb565b60405161017e9190611ff7565b60405180910390f35b6101a1600480360381019061019c9190611efd565b6110e0565b6040516101b79a999897969594939291906120a9565b60405180910390f35b6101c86113fe565b6040516101d59190612175565b60405180910390f35b6101e6611422565b6040516101f39190612175565b60405180910390f35b610204611446565b6040516102119190611d68565b60405180910390f35b610234600480360381019061022f9190611efd565b61144c565b604051610241919061218e565b60405180910390f35b610264600480360381019061025f91906121d1565b6114f5565b60405161027494939291906121fc565b60405180910390f35b6102976004803603810190610292919061223f565b61156e565b005b6102b360048036038101906102ae91906123e5565b6118d4565b6040516102c0919061218e565b60405180910390f35b6102e360048036038101906102de9190611efd565b611909565b6040516102f09190612594565b60405180910390f35b610313600480360381019061030e9190611efd565b611ca4565b60405161032091906125b4565b60405180910390f35b5f600580549050905090565b60035f3373ffffffffffffffffffffffffffffffffffffffff1673ffffffffffffffffffffffffffffffffffffffff1681526020019081526020015f205f015f9054906101000a900460ff166103c0576040517f08c379a00000000000000000000000000000000000000000000000000000000081526004016103b790612617565b60405180910390fd5b600482826040516103d2929190612663565b90815260200160405180910390205f9054906101000a900460ff161561042d576040517f08c379a0000000000000000000000000000000000000000000000000000000008152600401610424906126c5565b60405180910390fd5b5f8686905011610472576040517f08c379a00000000000000000000000000000000000000000000000000000000081526004016104699061272d565b60405180910390fd5b5f84849050116104b7576040517f08c379a00000000000000000000000000000000000000000000000000000000081526004016104ae90612795565b60405180910390fd5b600160035f3373ffffffffffffffffffffffffffffffffffffffff1673ffffffffffffffffffffffffffffffffffffffff1681526020019081526020015f205f0160016101000a81548160ff021916908315150217905550858560035f3373ffffffffffffffffffffffffffffffffffffffff1673ffffffffffffffffffffffffffffffffffffffff1681526020019081526020015f20600301918261055e9291906129c2565b50838360035f3373ffffffffffffffffffffffffffffffffffffffff1673ffffffffffffffffffffffffffffffffffffffff1681526020019081526020015f2060040191826105ae9291906129c2565b50818160035f3373ffffffffffffffffffffffffffffffffffffffff1673ffffffffffffffffffffffffffffffffffffffff1681526020019081526020015f2060060191826105fe9291906129c2565b50600160048383604051610613929190612663565b90815260200160405180910390205f6101000a81548160ff0219169083151502179055503373ffffffffffffffffffffffffffffffffffffffff167fe32f71a6022d1f7d92e4cce98d2f3f15555d4ecd3301068e53140bde2cbae11b858589898787426040516106899796959493929190612abb565b60405180910390a2505050505050565b5f60035f8373ffffffffffffffffffffffffffffffffffffffff1673ffffffffffffffffffffffffffffffffffffffff1681526020019081526020015f20604051806101400160405290815f82015f9054906101000a900460ff161515151581526020015f820160019054906101000a900460ff161515151581526020015f820160029054906101000a900460ff1660ff1660ff1681526020016001820154815260200160028201805461074c906127ea565b80601f0160208091040260200160405190810160405280929190818152602001828054610778906127ea565b80156107c35780601f1061079a576101008083540402835291602001916107c3565b820191905f5260205f20905b8154815290600101906020018083116107a657829003601f168201915b505050505081526020016003820180546107dc906127ea565b80601f0160208091040260200160405190810160405280929190818152602001828054610808906127ea565b80156108535780601f1061082a57610100808354040283529160200191610853565b820191905f5260205f20905b81548152906001019060200180831161083657829003601f168201915b5050505050815260200160048201805461086c906127ea565b80601f0160208091040260200160405190810160405280929190818152602001828054610898906127ea565b80156108e35780601f106108ba576101008083540402835291602001916108e3565b820191905f5260205f20905b8154815290600101906020018083116108c657829003601f168201915b505050505081526020016005820180546108fc906127ea565b80601f0160208091040260200160405190810160405280929190818152602001828054610928906127ea565b80156109735780601f1061094a57610100808354040283529160200191610973565b820191905f5260205f20905b81548152906001019060200180831161095657829003601f168201915b5050505050815260200160068201805461098c906127ea565b80601f01602080910402602001604051908101604052809291908181526020018280546109b8906127ea565b8015610a035780601f106109da57610100808354040283529160200191610a03565b820191905f5260205f20905b8154815290600101906020018083116109e657829003601f168201915b50505050508152602001600782015f9054906101000a900460ff1615151515815250509050806101200151610a6d576040517f08c379a0000000000000000000000000000000000000000000000000000000008152600401610a6490612b63565b60405180910390fd5b805f01518015610a7e575080602001515b610abd576040517f08c379a0000000000000000000000000000000000000000000000000000000008152600401610ab490612bcb565b60405180910390fd5b5f816040015160ff1611610b06576040517f08c379a0000000000000000000000000000000000000000000000000000000008152600401610afd90612c33565b60405180910390fd5b6276a700816060015142610b1a9190612c7e565b10610b5a576040517f08c379a0000000000000000000000000000000000000000000000000000000008152600401610b5190612cfb565b60405180910390fd5b60015f9054906101000a900473ffffffffffffffffffffffffffffffffffffffff1673ffffffffffffffffffffffffffffffffffffffff166323b872dd335f5f9054906101000a900473ffffffffffffffffffffffffffffffffffffffff166002546040518463ffffffff1660e01b8152600401610bda93929190612d19565b6020604051808303815f875af1158015610bf6573d5f5f3e3d5ffd5b505050506040513d601f19601f82011682018060405250810190610c1a9190612d78565b610c59576040517f08c379a0000000000000000000000000000000000000000000000000000000008152600401610c5090612ded565b60405180910390fd5b600560405180608001604052803373ffffffffffffffffffffffffffffffffffffffff1681526020018473ffffffffffffffffffffffffffffffffffffffff168152602001428152602001600254815250908060018154018082558091505060019003905f5260205f2090600402015f909190919091505f820151815f015f6101000a81548173ffffffffffffffffffffffffffffffffffffffff021916908373ffffffffffffffffffffffffffffffffffffffff1602179055506020820151816001015f6101000a81548173ffffffffffffffffffffffffffffffffffffffff021916908373ffffffffffffffffffffffffffffffffffffffff160217905550604082015181600201556060820151816003015550508173ffffffffffffffffffffffffffffffffffffffff163373ffffffffffffffffffffffffffffffffffffffff167f4f70a51fb8a93ae2d2a1a1c8ed255b23de173838e8dfa5020167ffe41663043d60025442604051610dd1929190612e0b565b60405180910390a35050565b7f000000000000000000000000000000000000000000000000000000000000000073ffffffffffffffffffffffffffffffffffffffff163373ffffffffffffffffffffffffffffffffffffffff1614610e6b576040517f08c379a0000000000000000000000000000000000000000000000000000000008152600401610e6290612e7c565b60405180910390fd5b60035f8373ffffffffffffffffffffffffffffffffffffffff1673ffffffffffffffffffffffffffffffffffffffff1681526020019081526020015f206007015f9054906101000a900460ff16610ef7576040517f08c379a0000000000000000000000000000000000000000000000000000000008152600401610eee90612b63565b60405180910390fd5b60035f8373ffffffffffffffffffffffffffffffffffffffff1673ffffffffffffffffffffffffffffffffffffffff1681526020019081526020015f205f0160019054906101000a900460ff16610f83576040517f08c379a0000000000000000000000000000000000000000000000000000000008152600401610f7a90612ee4565b60405180910390fd5b60648160ff161115610fca576040517f08c379a0000000000000000000000000000000000000000000000000000000008152600401610fc190612f4c565b60405180910390fd5b8060035f8473ffffffffffffffffffffffffffffffffffffffff1673ffffffffffffffffffffffffffffffffffffffff1681526020019081526020015f205f0160026101000a81548160ff021916908360ff1602179055504260035f8473ffffffffffffffffffffffffffffffffffffffff1673ffffffffffffffffffffffffffffffffffffffff1681526020019081526020015f20600101819055508173ffffffffffffffffffffffffffffffffffffffff167fdc7724b4287acea67f086bc934c52cc68c455887e1f03d975deaecb3ead652ff82426040516110af929190612f6a565b60405180910390a25050565b60015f9054906101000a900473ffffffffffffffffffffffffffffffffffffffff1681565b6003602052805f5260405f205f91509050805f015f9054906101000a900460ff1690805f0160019054906101000a900460ff1690805f0160029054906101000a900460ff169080600101549080600201805461113b906127ea565b80601f0160208091040260200160405190810160405280929190818152602001828054611167906127ea565b80156111b25780601f10611189576101008083540402835291602001916111b2565b820191905f5260205f20905b81548152906001019060200180831161119557829003601f168201915b5050505050908060030180546111c7906127ea565b80601f01602080910402602001604051908101604052809291908181526020018280546111f3906127ea565b801561123e5780601f106112155761010080835404028352916020019161123e565b820191905f5260205f20905b81548152906001019060200180831161122157829003601f168201915b505050505090806004018054611253906127ea565b80601f016020809104026020016040519081016040528092919081815260200182805461127f906127ea565b80156112ca5780601f106112a1576101008083540402835291602001916112ca565b820191905f5260205f20905b8154815290600101906020018083116112ad57829003601f168201915b5050505050908060050180546112df906127ea565b80601f016020809104026020016040519081016040528092919081815260200182805461130b906127ea565b80156113565780601f1061132d57610100808354040283529160200191611356565b820191905f5260205f20905b81548152906001019060200180831161133957829003601f168201915b50505050509080600601805461136b906127ea565b80601f0160208091040260200160405190810160405280929190818152602001828054611397906127ea565b80156113e25780601f106113b9576101008083540402835291602001916113e2565b820191905f5260205f20905b8154815290600101906020018083116113c557829003601f168201915b505050505090806007015f9054906101000a900460ff1690508a565b7f000000000000000000000000000000000000000000000000000000000000000081565b5f5f9054906101000a900473ffffffffffffffffffffffffffffffffffffffff1681565b60025481565b5f60035f8373ffffffffffffffffffffffffffffffffffffffff1673ffffffffffffffffffffffffffffffffffffffff1681526020019081526020015f205f015f9054906101000a900460ff1680156114ee575060035f8373ffffffffffffffffffffffffffffffffffffffff1673ffffffffffffffffffffffffffffffffffffffff1681526020019081526020015f205f0160019054906101000a900460ff165b9050919050565b60058181548110611504575f80fd5b905f5260205f2090600402015f91509050805f015f9054906101000a900473ffffffffffffffffffffffffffffffffffffffff1690806001015f9054906101000a900473ffffffffffffffffffffffffffffffffffffffff16908060020154908060030154905084565b60035f3373ffffffffffffffffffffffffffffffffffffffff1673ffffffffffffffffffffffffffffffffffffffff1681526020019081526020015f205f015f9054906101000a900460ff16156115fa576040517f08c379a00000000000000000000000000000000000000000000000000000000081526004016115f190613001565b60405180910390fd5b6004828260405161160c929190612663565b90815260200160405180910390205f9054906101000a900460ff1615611667576040517f08c379a000000000000000000000000000000000000000000000000000000000815260040161165e906126c5565b60405180910390fd5b5f84849050116116ac576040517f08c379a00000000000000000000000000000000000000000000000000000000081526004016116a39061272d565b60405180910390fd5b5f82829050116116f1576040517f08c379a00000000000000000000000000000000000000000000000000000000081526004016116e890613069565b60405180910390fd5b600160035f3373ffffffffffffffffffffffffffffffffffffffff1673ffffffffffffffffffffffffffffffffffffffff1681526020019081526020015f205f015f6101000a81548160ff021916908315150217905550838360035f3373ffffffffffffffffffffffffffffffffffffffff1673ffffffffffffffffffffffffffffffffffffffff1681526020019081526020015f2060020191826117979291906129c2565b50818160035f3373ffffffffffffffffffffffffffffffffffffffff1673ffffffffffffffffffffffffffffffffffffffff1681526020019081526020015f2060050191826117e79291906129c2565b50600160035f3373ffffffffffffffffffffffffffffffffffffffff1673ffffffffffffffffffffffffffffffffffffffff1681526020019081526020015f206007015f6101000a81548160ff021916908315150217905550600160048383604051611854929190612663565b90815260200160405180910390205f6101000a81548160ff0219169083151502179055503373ffffffffffffffffffffffffffffffffffffffff167fc1ed9f712a30dcc8b67d1ef4ca92963276a682e41cc6dc2c00ae3c3380f0d3b385858585426040516118c6959493929190613087565b60405180910390a250505050565b6004818051602081018201805184825260208301602085012081835280955050505050505f915054906101000a900460ff1681565b611911611cf9565b60035f8373ffffffffffffffffffffffffffffffffffffffff1673ffffffffffffffffffffffffffffffffffffffff1681526020019081526020015f20604051806101400160405290815f82015f9054906101000a900460ff161515151581526020015f820160019054906101000a900460ff161515151581526020015f820160029054906101000a900460ff1660ff1660ff168152602001600182015481526020016002820180546119c3906127ea565b80601f01602080910402602001604051908101604052809291908181526020018280546119ef906127ea565b8015611a3a5780601f10611a1157610100808354040283529160200191611a3a565b820191905f5260205f20905b815481529060010190602001808311611a1d57829003601f168201915b50505050508152602001600382018054611a53906127ea565b80601f0160208091040260200160405190810160405280929190818152602001828054611a7f906127ea565b8015611aca5780601f10611aa157610100808354040283529160200191611aca565b820191905f5260205f20905b815481529060010190602001808311611aad57829003601f168201915b50505050508152602001600482018054611ae3906127ea565b80601f0160208091040260200160405190810160405280929190818152602001828054611b0f906127ea565b8015611b5a5780601f10611b3157610100808354040283529160200191611b5a565b820191905f5260205f20905b815481529060010190602001808311611b3d57829003601f168201915b50505050508152602001600582018054611b73906127ea565b80601f0160208091040260200160405190810160405280929190818152602001828054611b9f906127ea565b8015611bea5780601f10611bc157610100808354040283529160200191611bea565b820191905f5260205f20905b815481529060010190602001808311611bcd57829003601f168201915b50505050508152602001600682018054611c03906127ea565b80601f0160208091040260200160405190810160405280929190818152602001828054611c2f906127ea565b8015611c7a5780601f10611c5157610100808354040283529160200191611c7a565b820191905f5260205f20905b815481529060010190602001808311611c5d57829003601f168201915b50505050508152602001600782015f9054906101000a900460ff1615151515815250509050919050565b5f60035f8373ffffffffffffffffffffffffffffffffffffffff1673ffffffffffffffffffffffffffffffffffffffff1681526020019081526020015f205f0160029054906101000a900460ff169050919050565b6040518061014001604052805f151581526020015f151581526020015f60ff1681526020015f815260200160608152602001606081526020016060815260200160608152602001606081526020015f151581525090565b5f819050919050565b611d6281611d50565b82525050565b5f602082019050611d7b5f830184611d59565b92915050565b5f604051905090565b5f5ffd5b5f5ffd5b5f5ffd5b5f5ffd5b5f5ffd5b5f5f83601f840112611db357611db2611d92565b5b8235905067ffffffffffffffff811115611dd057611dcf611d96565b5b602083019150836001820283011115611dec57611deb611d9a565b5b9250929050565b5f5f5f5f5f5f60608789031215611e0d57611e0c611d8a565b5b5f87013567ffffffffffffffff811115611e2a57611e29611d8e565b5b611e3689828a01611d9e565b9650965050602087013567ffffffffffffffff811115611e5957611e58611d8e565b5b611e6589828a01611d9e565b9450945050604087013567ffffffffffffffff811115611e8857611e87611d8e565b5b611e9489828a01611d9e565b92509250509295509295509295565b5f73ffffffffffffffffffffffffffffffffffffffff82169050919050565b5f611ecc82611ea3565b9050919050565b611edc81611ec2565b8114611ee6575f5ffd5b50565b5f81359050611ef781611ed3565b92915050565b5f60208284031215611f1257611f11611d8a565b5b5f611f1f84828501611ee9565b91505092915050565b5f60ff82169050919050565b611f3d81611f28565b8114611f47575f5ffd5b50565b5f81359050611f5881611f34565b92915050565b5f5f60408385031215611f7457611f73611d8a565b5b5f611f8185828601611ee9565b9250506020611f9285828601611f4a565b9150509250929050565b5f819050919050565b5f611fbf611fba611fb584611ea3565b611f9c565b611ea3565b9050919050565b5f611fd082611fa5565b9050919050565b5f611fe182611fc6565b9050919050565b611ff181611fd7565b82525050565b5f60208201905061200a5f830184611fe8565b92915050565b5f8115159050919050565b61202481612010565b82525050565b61203381611f28565b82525050565b5f81519050919050565b5f82825260208201905092915050565b8281835e5f83830152505050565b5f601f19601f8301169050919050565b5f61207b82612039565b6120858185612043565b9350612095818560208601612053565b61209e81612061565b840191505092915050565b5f610140820190506120bd5f83018d61201b565b6120ca602083018c61201b565b6120d7604083018b61202a565b6120e4606083018a611d59565b81810360808301526120f68189612071565b905081810360a083015261210a8188612071565b905081810360c083015261211e8187612071565b905081810360e08301526121328186612071565b90508181036101008301526121478185612071565b905061215761012083018461201b565b9b9a5050505050505050505050565b61216f81611ec2565b82525050565b5f6020820190506121885f830184612166565b92915050565b5f6020820190506121a15f83018461201b565b92915050565b6121b081611d50565b81146121ba575f5ffd5b50565b5f813590506121cb816121a7565b92915050565b5f602082840312156121e6576121e5611d8a565b5b5f6121f3848285016121bd565b91505092915050565b5f60808201905061220f5f830187612166565b61221c6020830186612166565b6122296040830185611d59565b6122366060830184611d59565b95945050505050565b5f5f5f5f6040858703121561225757612256611d8a565b5b5f85013567ffffffffffffffff81111561227457612273611d8e565b5b61228087828801611d9e565b9450945050602085013567ffffffffffffffff8111156122a3576122a2611d8e565b5b6122af87828801611d9e565b925092505092959194509250565b5f5ffd5b7f4e487b71000000000000000000000000000000000000000000000000000000005f52604160045260245ffd5b6122f782612061565b810181811067ffffffffffffffff82111715612316576123156122c1565b5b80604052505050565b5f612328611d81565b905061233482826122ee565b919050565b5f67ffffffffffffffff821115612353576123526122c1565b5b61235c82612061565b9050602081019050919050565b828183375f83830152505050565b5f61238961238484612339565b61231f565b9050828152602081018484840111156123a5576123a46122bd565b5b6123b0848285612369565b509392505050565b5f82601f8301126123cc576123cb611d92565b5b81356123dc848260208601612377565b91505092915050565b5f602082840312156123fa576123f9611d8a565b5b5f82013567ffffffffffffffff81111561241757612416611d8e565b5b612423848285016123b8565b91505092915050565b61243581612010565b82525050565b61244481611f28565b82525050565b61245381611d50565b82525050565b5f82825260208201905092915050565b5f61247382612039565b61247d8185612459565b935061248d818560208601612053565b61249681612061565b840191505092915050565b5f61014083015f8301516124b75f86018261242c565b5060208301516124ca602086018261242c565b5060408301516124dd604086018261243b565b5060608301516124f0606086018261244a565b50608083015184820360808601526125088282612469565b91505060a083015184820360a08601526125228282612469565b91505060c083015184820360c086015261253c8282612469565b91505060e083015184820360e08601526125568282612469565b9150506101008301518482036101008601526125728282612469565b91505061012083015161258961012086018261242c565b508091505092915050565b5f6020820190508181035f8301526125ac81846124a1565b905092915050565b5f6020820190506125c75f83018461202a565b92915050565b7f5072616d61616e3a20566572696679206964656e7469747920666972737400005f82015250565b5f612601601e83612043565b915061260c826125cd565b602082019050919050565b5f6020820190508181035f83015261262e816125f5565b9050919050565b5f81905092915050565b5f61264a8385612635565b9350612657838584612369565b82840190509392505050565b5f61266f82848661263f565b91508190509392505050565b7f5072616d61616e3a2050726f6f6620616c7265616479207573656400000000005f82015250565b5f6126af601b83612043565b91506126ba8261267b565b602082019050919050565b5f6020820190508181035f8301526126dc816126a3565b9050919050565b7f5072616d61616e3a20496e76616c69642064646f6349640000000000000000005f82015250565b5f612717601783612043565b9150612722826126e3565b602082019050919050565b5f6020820190508181035f8301526127448161270b565b9050919050565b7f5072616d61616e3a20496e76616c696420706c6174666f726d000000000000005f82015250565b5f61277f601983612043565b915061278a8261274b565b602082019050919050565b5f6020820190508181035f8301526127ac81612773565b9050919050565b5f82905092915050565b7f4e487b71000000000000000000000000000000000000000000000000000000005f52602260045260245ffd5b5f600282049050600182168061280157607f821691505b602082108103612814576128136127bd565b5b50919050565b5f819050815f5260205f209050919050565b5f6020601f8301049050919050565b5f82821b905092915050565b5f600883026128767fffffffffffffffffffffffffffffffffffffffffffffffffffffffffffffffff8261283b565b612880868361283b565b95508019841693508086168417925050509392505050565b5f6128b26128ad6128a884611d50565b611f9c565b611d50565b9050919050565b5f819050919050565b6128cb83612898565b6128df6128d7826128b9565b848454612847565b825550505050565b5f5f905090565b6128f66128e7565b6129018184846128c2565b505050565b5f5b828110156129275761291c5f8284016128ee565b600181019050612908565b505050565b601f82111561297a5782821115612979576129468161281a565b61294f8361282c565b6129588561282c565b6020861015612965575f90505b80830161297482840382612906565b505050505b5b505050565b5f82821c905092915050565b5f61299a5f198460080261297f565b1980831691505092915050565b5f6129b2838361298b565b9150826002028217905092915050565b6129cc83836127b3565b67ffffffffffffffff8111156129e5576129e46122c1565b5b6129ef82546127ea565b6129fa82828561292c565b5f601f831160018114612a27575f8415612a15578287013590505b612a1f85826129a7565b865550612a86565b601f198416612a358661281a565b5f5b82811015612a5c57848901358255600182019150602085019450602081019050612a37565b86831015612a795784890135612a75601f89168261298b565b8355505b6001600288020188555050505b50505050505050565b5f612a9a8385612043565b9350612aa7838584612369565b612ab083612061565b840190509392505050565b5f6080820190508181035f830152612ad481898b612a8f565b90508181036020830152612ae9818789612a8f565b90508181036040830152612afe818587612a8f565b9050612b0d6060830184611d59565b98975050505050505050565b7f5072616d61616e3a20576f726b6572206e6f7420666f756e64000000000000005f82015250565b5f612b4d601983612043565b9150612b5882612b19565b602082019050919050565b5f6020820190508181035f830152612b7a81612b41565b9050919050565b7f5072616d61616e3a2050726f66696c6520696e636f6d706c65746500000000005f82015250565b5f612bb5601b83612043565b9150612bc082612b81565b602082019050919050565b5f6020820190508181035f830152612be281612ba9565b9050919050565b7f5072616d61616e3a2053636f7265206e6f74207965742061737369676e6564005f82015250565b5f612c1d601f83612043565b9150612c2882612be9565b602082019050919050565b5f6020820190508181035f830152612c4a81612c11565b9050919050565b7f4e487b71000000000000000000000000000000000000000000000000000000005f52601160045260245ffd5b5f612c8882611d50565b9150612c9383611d50565b9250828203905081811115612cab57612caa612c51565b5b92915050565b7f5072616d61616e3a2053636f72652065787069726564000000000000000000005f82015250565b5f612ce5601683612043565b9150612cf082612cb1565b602082019050919050565b5f6020820190508181035f830152612d1281612cd9565b9050919050565b5f606082019050612d2c5f830186612166565b612d396020830185612166565b612d466040830184611d59565b949350505050565b612d5781612010565b8114612d61575f5ffd5b50565b5f81519050612d7281612d4e565b92915050565b5f60208284031215612d8d57612d8c611d8a565b5b5f612d9a84828501612d64565b91505092915050565b7f5072616d61616e3a20466565207472616e73666572206661696c6564000000005f82015250565b5f612dd7601c83612043565b9150612de282612da3565b602082019050919050565b5f6020820190508181035f830152612e0481612dcb565b9050919050565b5f604082019050612e1e5f830185611d59565b612e2b6020830184611d59565b9392505050565b7f5072616d61616e3a204f6e6c79204149204167656e74000000000000000000005f82015250565b5f612e66601683612043565b9150612e7182612e32565b602082019050919050565b5f6020820190508181035f830152612e9381612e5a565b9050919050565b7f5072616d61616e3a20496e636f6d65206e6f74207665726966696564000000005f82015250565b5f612ece601c83612043565b9150612ed982612e9a565b602082019050919050565b5f6020820190508181035f830152612efb81612ec2565b9050919050565b7f5072616d61616e3a2053636f7265206d75737420626520302d313030000000005f82015250565b5f612f36601c83612043565b9150612f4182612f02565b602082019050919050565b5f6020820190508181035f830152612f6381612f2a565b9050919050565b5f604082019050612f7d5f83018561202a565b612f8a6020830184611d59565b9392505050565b7f5072616d61616e3a204964656e7469747920616c7265616479207665726966695f8201527f6564000000000000000000000000000000000000000000000000000000000000602082015250565b5f612feb602283612043565b9150612ff682612f91565b604082019050919050565b5f6020820190508181035f83015261301881612fdf565b9050919050565b7f5072616d61616e3a20496e76616c69642070726f6f66206861736800000000005f82015250565b5f613053601b83612043565b915061305e8261301f565b602082019050919050565b5f6020820190508181035f83015261308081613047565b9050919050565b5f6060820190508181035f8301526130a0818789612a8f565b905081810360208301526130b5818587612a8f565b90506130c46040830184611d59565b969550505050505056fea2646970667358221220067cf35f53139be391409697727940721b0f6dd28ac9132c7aadb26677b3a9a364736f6c63430008210033","linkReferences":{}},"methodIdentifiers":{"AI_AGENT()":"408432c5","getGigScore(address)":"fced987e","getVerificationCount()":"1f05b374","getWorkerProfile(address)":"ce37e7dc","isVerified(address)":"b9209e33","setGigScore(address,uint8)":"326ac949","submitIdentity(string,string)":"bdc5c574","submitIncome(string,string,string)":"23d5d5bd","treasury()":"61d027b3","usdc()":"3e413bee","usedProofHashes(string)":"c566e293","verificationFee()":"a8c278a2","verificationLogs(uint256)":"bb4ab2da","verifyWorker(address)":"2b30368c","workers(address)":"4048a257"},"id":16}